:020000040800F2
:100000007006002065010008890F0008610F0008D4
:1000100000000000000000000000000000000000E0
:100020000000000000000000000000008F0F00082A
:1000300000000000000000008D0F0008910F000874
:100040009501000895010008950100089501000838
:100050009501000895010008950100089501000828
:1000600000000000950100089501000895010008B6
:1000700095010008950100080000000095010008A6
:100080000000000000000000000000000000000070
:100090009501000800000000000000009501000824
:1000A00000000000950100080000000000000000B2
:1000B0009501000895010008000000000000000004
:1000C00000F002F800F03EF80CA030C80838241800
:1000D0002D18A246671EAB4654465D46AC4201D180
:1000E00000F030F87E460F3E0FCCB6460126334274
:1000F00000D0FB1AA246AB4633431847F80F000066
:1001000018100000103A02D378C878C1FAD8520704
:1001100001D330C830C101D504680C6070470000BD
:100120000023002400250026103A01D378C1FBD813
:10013000520700D330C100D50B6070471FB51FBDFB
:1001400010B510BD00F099F91146FFF7F7FF00F068
:10015000B7FF00F0B1F903B4FFF7F2FF03BC00F002
:10016000B7F900000F4880F308880F480168090EAE
:100170000E4A914205D10E480E4901600E480F49C2
:1001800001600F4880470F480047FEE7FEE7FEE7A3
:10019000FEE7FEE7FEE700000B480C490C4A0D4B5A
:1001A0007047000070060020040000001F000000DF
:1001B0003410024001000000000001400000000077
:1001C00015100008C1000008700000207006002013
:1001D0007002002070020020FEB5054610460C4655
:1001E000184373D0AE468C460020AD1A01469C41A0
:1001F00067D36646002701243D46B61A9D4102D3C7
:1002000013463A462124654676462F04360C3E4373
:100210002D0CB61A9D4104D3150C1B042B4312045C
:100220001034654676462F06360A3E432D0AB61A26
:100230009D4104D3150E1B022B4312020834654660
:1002400076462F0736093E432D09B61A9D4104D341
:10025000150F1B012B431201241D65467646AF077F
:10026000B6083E43AD08B61A9D4104D3950F9B00D6
:100270002B439200A41C65467646EF0776083E4362
:100280006D08B61A9D411AD392185B41641C16E0A2
:100290000018764665464941B71A9D410191009084
:1002A00009D36046B11A98418E4684460098019958
:1002B0000025401C6941DD0752082A435B08641E83
:1002C000E6D57246634603B0F0BDFFE70020014665
:1002D000C046C0462A462346F5E701E004C0091F90
:1002E0000429FBD28B0701D50280801CC90700D0EE
:1002F0000270704700290BD0C30702D00270401C67
:10030000491E022904D3830702D50280801C891E5E
:10031000E3E70022EEE70022DFE7002203098B4239
:100320002CD3030A8B4211D300239C464EE0034694
:100330000B433CD4002243088B4231D303098B4248
:100340001CD3030A8B4201D394463FE0C3098B427E
:1003500001D3CB01C01A524183098B4201D38B01D7
:10036000C01A524143098B4201D34B01C01A52417A
:1003700003098B4201D30B01C01A5241C3088B42BF
:1003800001D3CB00C01A524183088B4201D38B00AA
:10039000C01A524143088B4201D34B00C01A52414C
:1003A000411A00D201465241104670475DE0CA0F23
:1003B00000D04942031000D34042534000229C46E3
:1003C00003098B422DD3030A8B4212D3FC228901ED
:1003D00012BA030A8B420CD3890192118B4208D3C3
:1003E000890192118B4204D389013AD0921100E025
:1003F0008909C3098B4201D3CB01C01A5241830939
:100400008B4201D38B01C01A524143098B4201D365
:100410004B01C01A524103098B4201D30B01C01A90
:100420005241C3088B4201D3CB00C01A524183080A
:100430008B4201D38B00C01A5241D9D243088B4260
:1004400001D34B00C01A5241411A00D20146634603
:1004500052415B10104601D34042002B00D5494267
:10046000704763465B1000D3404201B50020C04690
:10047000C04602BD704770477047754600F024F8CB
:10048000AE46050069465346C008C000854618B010
:1004900020B5FFF781FE60BC00274908B64600265C
:1004A000C0C5C0C5C0C5C0C5C0C5C0C5C0C5C0C524
:1004B000403D49008D46704710B50446C046C046D1
:1004C0002046FFF748FE10BD00487047100000208E
:1004D00001491820ABBEFEE726000200704772B645
:1004E00000BFFEE7014800687047000000000020E0
:1004F00003480068034909784018014908607047BB
:10050000000000200800002010B500240848006802
:100510004021084306490860032000F00BF800283A
:1005200001D0012401E000F02FF8204610BD0000AA
:100530000020024070B50446104801787D20C000BC
:10054000FFF7EBFE064631460D480068FFF7E5FE73
:10055000054600F0E9FC002801D0012070BD042C04
:1005600007D200222146501E00F01EF80548046004
:1005700001E00120F2E70020F0E700000800002081
:100580000C000020040000200648406B01210843B5
:10059000044948630846806B09040843014988639D
:1005A000704700000010024070B504460D46164624
:1005B0002946204600F048FD70BD0000F8B504460D
:1005C0000E46002C01D10120F8BD83480068C00709
:1005D000C00FB04218D28048006840084000304345
:1005E0007D490860FFF77EFF054607E0FFF77AFFC9
:1005F000401B7A49884201D90320E5E77648006824
:10060000C007C00FB042F1D1022120680840022883
:1006100007D17348C068F0218843A1680843704936
:10062000C8602078C007C00F00284CD0606802283E
:1006300009D16B480068012149040840400C00289A
:1006400024D10120C0E76068032809D1644800680C
:10065000012149060840400E002817D10120B3E7C8
:100660006068012808D15E480068042108408008BD
:1006700000280BD10120A7E7594800680121490251
:100680000840400A002801D101209DE75448C06875
:1006900080088000616808435149C860FFF722FF65
:1006A0000546606802280FD107E0FFF71BFF401BDB
:1006B0004A49884201D9032086E74948C0680C218D
:1006C00008400828F1D134E0606803280FD107E022
:1006D000FFF708FF401B4149884201D9032073E717
:1006E0003F48C0680C2108400C28F1D121E0606827
:1006F00001280FD107E0FFF7F5FE401B374988427C
:1007000001D9032060E73648C0680C21084004285E
:10071000F1D10EE007E0FFF7E5FE401B2F498842CC
:1007200001D9032050E72E48C0680C21084000285A
:10073000F1D129480068C007C00FB04218D9264837
:10074000006840084000304323490860FFF7CAFEB4
:10075000054607E0FFF7C6FE401B2049884201D945
:10076000032031E71C480068C007C00FB042F1D138
:10077000042120680840042808D11948C0680721CE
:1007800009028843E16808431549C86008212068C8
:100790000840082809D11248C0680721C9028843C7
:1007A0002169C90008430E49C86000F021F80C49CE
:1007B000C968F022114009090A4A515CC8400A4937
:1007C00008600A480068FFF7B5FE0746002F01D011
:1007D0003846F9E60020F7E60020024088130000C2
:1007E00000100240D01000080C000020040000207F
:1007F000F0B585B03548C06803900C2103980840D7
:10080000002852D0042804D008280CD00C284BD142
:100810000BE02E48006810210840002801D02C4D24
:1008200000E02C4D4EE02C4D4CE00F218904039844
:100830000840800C29490F5C032189050398084072
:10084000800D441C2148C06801210904084000288B
:100850000BD02148394600F0DEFB224600230191EF
:100860000090FFF7B9FC06461CE01848006810210C
:10087000084000280BD01648394600F0CCFB224631
:10088000002301910090FFF7A7FC06460AE01148FB
:10089000394600F0C0FB2246002301910090FFF78B
:1008A0009BFC064635460DE000BF0848406807211E
:1008B00049030840400B02900298401C01218140EE
:1008C000CD0300BF00BF284605B0F0BD00100240B8
:1008D00000093D000024F40000127A00E81000082E
:1008E000FEB50446002C01D10120FEBDFB48C768BF
:1008F0000C210F40C06801210904084001902078B4
:10090000C007C00F002872D0082F04D00C2F0FD1C1
:10091000019888420CD1F14800680121490408403F
:10092000400C002863D06068002860D10120DCE71B
:1009300000BF012109046068884205D1E7480068CA
:100940000843E649086027E00521090460688842F9
:100950000ED1E2480068012189040843DF4908609C
:1009600008460068012109040843DC49086013E0D7
:10097000DA480068012109048843D849086008461C
:100980000068012109040840009000BFD3480068B6
:1009900089008843D149086000BF6068002813D0EF
:1009A000FFF7A0FD054606E0FFF79CFD401B64280D
:1009B00001D9032099E7C94800680121490408408A
:1009C000400C0028F0D012E0FFF78CFD054606E051
:1009D000FFF788FD401B642801D9032085E7BF4845
:1009E0000068012149040840400C0028F0D1022190
:1009F0002068084002286CD1E6682020304000289A
:100A000009D0B648006820210843B4490860202175
:100A1000304688430646042F04D00C2F34D1019869
:100A2000002831D1AD480068042108408008002822
:100A300003D0002E01D1012057E7A84840681F21AC
:100A400009028843216909020843A449486008460D
:100A50000068092188433043A0490860FFF7C8FEB9
:100A60009E49C968F022114009099D4A515CC8405D
:100A70009C4908609C480068FFF75CFD0290029862
:100A800000283FD0029830E7002E23D0934800681A
:100A900009218843304391490860FFF723FD05464B
:100AA00006E0FFF71FFD401B022801D903201CE7C9
:100AB0008A4800680421084080080028F1D087484F
:100AC00040681F21090288432169090208438349BC
:100AD000486017E081480068400840007F4908608E
:100AE000FFF700FD054606E0FFF7FCFC401B02286F
:100AF00001D90320F9E679480068042108408008FC
:100B00000028F1D1102120680840102868D1002F5A
:100B100037D17248006849010840400A002804D0D3
:100B2000A069002801D10120DFE66C484068072158
:100B300049038843216A0843684948600846406879
:100B40000002000A217F0906084364494860206AC0
:100B5000400B401C01218140C8036049C968F02254
:100B6000114009095E4A515CC8405E4908605E4810
:100B70000068FFF7DFFC0290029800284BD0029833
:100B8000B3E6A06900282CD054480068FF21013149
:100B9000084352490860FFF7A5FC054606E0FFF749
:100BA000A1FC401B022801D903209EE64B480068A7
:100BB000012149020840400A0028F0D04748406817
:100BC000072149038843216A08434449486008468D
:100BD00040680002000A217F090608433F49486037
:100BE00019E03E480068FF21013188433B49086015
:100BF000FFF778FC054606E0FFF774FC401B02286F
:100C000001D9032071E635480068012149020840F6
:100C1000400A0028F0D1082120680840082839D16E
:100C2000606900281BD02D4840300069012108432D
:100C30002A4940310861FFF755FC054606E0FFF7F9
:100C400051FC401B022801D903204EE623484030C6
:100C500000690221084040080028F0D01AE01F482F
:100C600040300069400840001C4940310861FFF7EE
:100C700039FC054606E0FFF735FC401B022801D988
:100C8000032032E615484030006902210840400840
:100C90000028F0D104212068084004287BD10020DE
:100CA00000900E48806B89060840002806D10B484A
:100CB000806B084309498863012000900B48006855
:100CC000FF2101310840002820D10848006808436E
:100CD00006490860FFF706FC054610E000100240D8
:100CE000D01000080C00002004000020007000401C
:100CF000FFF7F8FB401B642801D90320F5E587487E
:100D00000068FF21013108400028F1D000BFFF2119
:100D10000131A068884205D18148006908438049B3
:100D2000086130E0A06800280DD17D480069FF21EE
:100D3000013188437A4908610846006909158843EA
:100D4000774908611FE005210902A06888420DD19A
:100D50007348006901218902084371490861084606
:100D60000069891508436E4908610CE06C48006908
:100D7000FF21013188436A49086108460069091565
:100D800088436749086100BFA068002815D0FFF7B5
:100D9000A9FB054608E031E0FFF7A4FB401B6149D1
:100DA000884201D90320A0E55D480069012149027C
:100DB0000840400A0028EFD013E0FFF793FB0546F8
:100DC00007E0FFF78FFB401B5649884201D90320FB
:100DD0008BE553480069012149020840400A002878
:100DE000EFD10098012808D14D484038806B01218F
:100DF000090788434A494039886300BF606A002870
:100E00004CD00C2F69D0606A022848D14448403841
:100E10000068012109068843414940390860FFF70D
:100E200061FB054606E0FFF75DFB401B022801D988
:100E300003205AE53A484038006801214906084035
:100E4000400E0028EFD1E16AA06A0843216B0843F5
:100E500033494039C968FD2212049143084330499F
:100E60004039C860084600680121090608432C493A
:100E700040390860FFF736FB054606E0FFF732FB16
:100E8000401B022801D903202FE52548403800687F
:100E9000012149060840400E0028EFD03CE02048E0
:100EA000403800680121090688431D49403908601F
:100EB000FFF718FB054606E0FFF714FB401B02286E
:100EC00001D9032011E51648403800680121490680
:100ED0000840400E0028EFD11EE0606A012800D1D2
:100EE00003E50F484038C0680190012109040198CA
:100EF0000840A16A88420DD10F2189040198084059
:100F0000E16A884206D10321890501980840216BD6
:100F1000884201D00120E8E40020E6E400700040AF
:100F2000401002408813000070B504462546681E34
:100F30000949884201D901200CE0681E074948612F
:100F40000321081F00F080F8002004498861072071
:100F50000861002070BD0000FFFFFF0000E000E01E
:100F600000BFFEE708B500BF0648C06A012108437C
:100F70000449C8620846C06AC007C00F009000BF9D
:100F800000BF08BD0010024000BFFEE77047704779
:100F900010B5FFF7ADFA10BD00B593B0342106A827
:100FA000FFF7B9F9142101A8FFF7B5F9184800684F
:100FB0000321C90288430121C9024018144908606D
:100FC000022006900120099010200A9002200F9024
:100FD00000211091410411914105129106A8FFF7DB
:100FE0007FFC002801D0FFF77AFA0F200190032040
:100FF00002900020039004900590012101A8FFF7C2
:10100000DDFA002801D0FFF76AFA13B000BD000036
:10101000007000407047F8B582B28BB2040C0D0C22
:1010200010465843002126465E43370C360480198B
:10103000794116466E43370C3604801979412646AD
:101040006E438919F8BD000010B5002819DB1A4A53
:1010500003231B02D21883089B00D2588307DC0E9F
:10106000FF23A3409A438B071B0E8407E40EA34083
:101070001A43114B032424021B198408A4001A519B
:1010800018E00E4A03071B0F083B9B089B00D25831
:101090008307DC0EFF23A3409A438B071B0E8407B4
:1010A000E40EA3401A43054B0407240F083CA40890
:1010B000A4001A5110BD000000E100E01CED00E0AA
:1010C000FFF722FAFFF768FFFFF74CFF00BFFEE7CC
:1010D00000000000000000000102030406070809E8
:1010E0000000000001020304030406080C1018208D
:1010F0003000000014110008000000201000000063
:1011000004010008241100081000002060060000FF
:1011100020010008000000000400000001000000A1
:0411200000002000AB
:04000005080000C12E
:00000001FF
