:020000040800F2
:1000000010040020D50000089701000895010008A1
:1000100000000000000000000000000000000000E0
:10002000000000000000000000000000DD010008EA
:1000300000000000000000009901000819020008FB
:100040000501000805010008050100080501000878
:100050000501000805010008050100080501000868
:100060000000000005010008050100080501000866
:100070000501000805010008000000000501000856
:100080000000000000000000000000000000000070
:100090000501000800000000000000000501000844
:1000A0000000000005010008000000000000000042
:1000B0000501000805010008000000000000000024
:1000C0000348854600F032F8004800474102000826
:1000D000100400200C4880F308880C480168090EC1
:1000E0000B4A914205D10B480B4901600B480C4962
:1000F00001600C4880470C480047FEE7FEE7FEE73A
:10010000FEE7FEE7FEE70000100400200400000008
:100110001F000000341002400100000000000140F8
:100120000000000021020008C1000008064C012563
:10013000064E05E0E36807CC2B430C3C984710348F
:10014000B442F7D3FFF7C0FFE4030008040400083B
:10015000034B1A600160586901210842FBD17047C6
:100160000420024080B5044892490160486809684B
:1001700081F30888804780BD08ED00E003480078DF
:1001800003490A68101808607047C0460000002044
:1001900008000020FEE7FEE770470000B0B51D49EB
:1001A00005220A60CB6920221342FBD04B6A037000
:1001B000DDB2EC1C8523FF2D00D02346022B09D392
:1001C0000124CD691542FCD04D6A4570641C401C69
:1001D0009C42F6D10120086098B2B0BD7047000083
:1001E00010B50C4A09231360002903D10AE0401C12
:1001F000002907D003789362491ED36980242342E3
:10020000FBD0F4E7D06940210842FBD00120106008
:1002100010BDC0460048004080B5FFF7AFFF80BD6D
:1002200070470000BFF34F8F034804490160BFF3DC
:100230004F8F00BFFDE7C0460CED00E00400FA055B
:10024000F0B5FFB08AB0504F504878600025BD60CF
:1002500005203860034601930320029040044C4976
:10026000C8600120039008601320C143494E082054
:1002700070500F21C943484A725019074A68022337
:1002800013434B600C22D243CB68134004241C431D
:10029000CC600B6AF024A34360241C430C620B68FF
:1002A000134003430B603D480921FFF799FF1B20D2
:1002B000C0430199315030682024204203D00AE025
:1002C0003068204207D10398000439680142F7D012
:1002D000FFF748FFF4E732483249016032490160D4
:1002E000324941603249416004A8061D0BE01020EC
:1002F0000499014304A80170039A42708270C1708E
:100300000421FFF76DFF04A8FFF748FF002809D07C
:1003100004A92A460B785A40401E491C0028F9D1EE
:100320001006E4D104A84078882802D0C728EAD172
:1003300028E02F4604A8C178807800020843C00155
:100340001C4944184120C20000212046FFF700FF4D
:100350000298C543701941686019001D0022FFF71B
:10036000F7FE2D1D7C2DF5DB04A813490180C17813
:1003700082784A400A21514001710521FFF730FF80
:100380003D46C0E7FFF74EFF10E000E05634120094
:100390002C1002401C48004055D00000DA03000831
:1003A0000C200240EFCDAB8905040302BFAE9D8C4B
:1003B00016151413000400080208000002E008C823
:1003C000121F08C1002AFAD170477047002001E0CF
:1003D00001C1121F002AFBD1704706470102030723
:1003E00000783E000804000800000020080000001B
:1003F000BC030008100400080800002008040000E6
:10040000CC03000800000000010000000000000014
:04000005080000C12E
:00000001FF
