:020000040800F2
:10000000000800201300000811000008110000087B
:10001000FEE700F015F800000922084B41181A60AD
:10002000884206D002789A62DA691206FCD501305D
:10003000F6E7DA695206FCD57047C0460048004032
:10004000FA23F0B5544C1B03A544544CC022636002
:1000500000230527A360524BD20227609A63012236
:10006000DA6208234F4D8021AB604F4B8020EB605C
:10007000A023DB055A68C9010A435A60D9684B4A74
:10008000400511400143D960586A4949494E014031
:10009000C020C004014359621968301C0A40802105
:1000A00089050A431A600921FFF7B6FF2F60019600
:1000B000EB699B060CD42368DB03F9D53E4B3F4A22
:1000C00093601B6883F308883D4B1B689847EFE7F4
:1000D0003C4C3D4BE3603D4BE3603D4B23613D4B6E
:1000E000236105232B60EB699B06FCD52D4B03A8F0
:1000F0005A6A8223D2B20270FF2A00D093B2012240
:1001000003339A4207DAE9698906FCD52549496A29
:1001100081540132F5E70022111C875C01327940DD
:100120009A42FADB002902D0019809300FE04378A7
:10013000872B08D1BFF34F8F274A204BDA60BFF3DC
:100140004F8FC046FDE7882B03D001980D30042166
:100150001FE082278378C2781B029B18164ADB01B6
:100160009A18BF0067601160A169C907FCD41B49D8
:100170005F181B4ED11A891900264158666011601C
:10018000A169C907FCD40432BA42F2D10321154B4C
:100190000393FFF741FFA4E7DCFDFFFF10E000E061
:1001A000001002400048004055D00000FFFFFFCF84
:1001B000FFFFFFF0E80100080002000800ED00E08A
:1001C0000402000800200240EFCDAB8905040302C1
:1001D000BFAE9D8C161514130400FA0580020008AA
:0801E00004FEFFF7010808000E
:1001E800060701020307007C7A017F017F017F0275
:0101F8007C8A
:0400000508000010DF
:00000001FF
