:020000040800F2
:10000000000400201300000811000008110000087F
:10001000FEE700F019F800000922084B41181A60A9
:10002000884206D002789A62DA691206FCD501305D
:10003000F6E7DA695206FCD57047C0460048004032
:08004000017F017F017F027CBA
:10004800FA23F0B5534C1B03A544534CC0226360FC
:1000580000230526A360514BD20226609A63012231
:10006800DA6208234E4D8021AB604E4B8020EB6056
:10007800A023DB055A68C9010A435A60D9684A4A6D
:10008800400511400143D960586A48490140C020E1
:10009800C00401435962196845480A40802189050E
:1000A8000A431A600921FFF7B3FF2E60EB699B062C
:1000B8000CD42368DB03F9D53E4B3F4A93601B6899
:1000C80083F308883D4B1B689847EFE73C4C3D4B52
:1000D800E3603D4BE3603D4B23613D4B23610523CA
:1000E8002B60EB699B06FCD52D4B01A85A6A82232D
:1000F800D2B20270FF2A00D093B2012203339A428F
:1001080007DAE9698906FCD52549496A815401322B
:10011800F5E70022111C865C013271409A42FADB35
:10012800002901D02B480FE04378872B08D1BFF373
:100138004F8F294A204BDA60BFF34F8FC046FDE747
:10014800882B03D02348043004211FE082268378BB
:10015800C2781B029B18174ADB019A18B600666022
:100168001160A169C907FCD41C495E181C4FD11A3B
:10017800C9190027415867601160A169C907FCD4F3
:100188000432B242F2D10321164B0193FFF740FF2C
:10019800A5E7C046E4FDFFFF10E000E000100240C4
:1001A8000048004055D00000FFFFFFCFFFFFFFF0E1
:1001B800F00100080002000800ED00E00402000859
:1001C80000200240EFCDAB8905040302BFAE9D8C31
:1001D80016151413400000080400FA0580020008F0
:0801E80004FEFFF70108090005
:0901F000060701020307007C7AF6
:0400000508000010DF
:00000001FF
