:020000040800F2
:100000004808002099010008C9130008ED120008F3
:1000100000000000000000000000000000000000E0
:10002000000000000000000000000000CF130008E6
:100030000000000000000000CD1300084914000873
:10004000AB010008AB010008AB010008AB010008E0
:10005000AB010008AB010008AB010008AB010008D0
:10006000AB010008AB010008AB010008AB010008C0
:10007000AB010008AB010008AB010008AB010008B0
:10008000AB010008AB01000800000000AB01000854
:10009000AB010008AB010008AB010008AB01000890
:1000A000AB010008AB010008AB010008AB01000880
:1000B000AB01000800000000AB01000800F002F8EE
:1000C00000F03EF80CA030C8083824182D18A246BD
:1000D000671EAB4654465D46AC4201D100F030F895
:1000E0007E460F3E0FCCB6460126334200D0FB1AA7
:1000F000A246AB4633431847C41A0000E41A000076
:10010000103A02D378C878C1FAD8520701D330C860
:1001100030C101D504680C60704700000023002442
:1001200000250026103A01D378C1FBD8520700D32E
:1001300030C100D50B6070471FB51FBD10B510BD95
:1001400000F0D8F91146FFF7F7FF01F089FC00F045
:10015000F0F903B4FFF7F2FF03BC00F0F7F9000079
:1001600070B505460C46164602E00FCC0FC5103E92
:10017000102EFAD2082E02D303CC03C5083E042E5B
:1001800007D301CC01C5361F03E021782970641C18
:100190006D1C761EF9D270BD07488047074800479E
:1001A000FEE7FEE7FEE7FEE7FEE7FEE70448054957
:1001B000054A064B70470000D3140008BD00000834
:1001C000480200204808002048040020480400207D
:1001D000FEB5054610460C46184373D0AE468C4615
:1001E0000020AD1A01469C4167D3664600270124D2
:1001F0003D46B61A9D4102D313463A462124654630
:1002000076462F04360C3E432D0CB61A9D4104D37E
:10021000150C1B042B4312041034654676462F063A
:10022000360A3E432D0AB61A9D4104D3150E1B0211
:100230002B4312020834654676462F0736093E43A3
:100240002D09B61A9D4104D3150F1B012B43120132
:10025000241D65467646AF07B6083E43AD08B61A7C
:100260009D4104D3950F9B002B439200A41C65462F
:100270007646EF0776083E436D08B61A9D411AD3BD
:1002800092185B41641C16E00018764665464941A9
:10029000B71A9D410191009009D36046B11A984167
:1002A0008E468446009801990025401C6941DD076F
:1002B00052082A435B08641EE6D57246634603B0C3
:1002C000F0BDFFE700200146C046C0462A4623464F
:1002D000F5E7F8B5042A2CD3830712D00B78491C14
:1002E0000370401C521E83070BD00B78491C03700F
:1002F000401C521E830704D00B78491C0370401C1D
:10030000521E8B079B0F05D0C91ADF002023DE1B6E
:1003100008C90AE0FFF724FFF8BD1D4608C9FD40E3
:100320001C46B4402C4310C0121F042AF5D2F30817
:10033000C91A521EF0D40B78491C0370401C521E7F
:10034000EAD40B78491C0370401C012AE4D40978D4
:100350000170F8BD01E004C0091F0429FBD28B071E
:1003600001D50280801CC90700D0027070470029A7
:100370000BD0C30702D00270401C491E022904D3CF
:10038000830702D50280801C891EE3E70022EEE786
:100390000022DFE7002203098B422CD3030A8B42A1
:1003A00011D300239C464EE003460B433CD400226D
:1003B00043088B4231D303098B421CD3030A8B427F
:1003C00001D394463FE0C3098B4201D3CB01C01A4D
:1003D000524183098B4201D38B01C01A5241430918
:1003E0008B4201D34B01C01A524103098B4201D306
:1003F0000B01C01A5241C3088B4201D3CB00C01A73
:10040000524183088B4201D38B00C01A52414308EA
:100410008B4201D34B00C01A5241411A00D201460F
:100420005241104670475DE0CA0F00D049420310A8
:1004300000D34042534000229C4603098B422DD3F7
:10044000030A8B4212D3FC22890112BA030A8B429F
:100450000CD3890192118B4208D3890192118B42EE
:1004600004D389013AD0921100E08909C3098B4273
:1004700001D3CB01C01A524183098B4201D38B01B6
:10048000C01A524143098B4201D34B01C01A524159
:1004900003098B4201D30B01C01A5241C3088B429E
:1004A00001D3CB00C01A524183088B4201D38B0089
:1004B000C01A5241D9D243088B4201D34B00C01A13
:1004C0005241411A00D20146634652415B10104628
:1004D00001D34042002B00D54942704763465B1070
:1004E00000D3404201B50020C046C04602BD70475F
:1004F00070477047754600F025F8AE46050069461E
:100500005346C008C000854618B020B5FFF74EFE20
:1005100060BC00274908B6460026C0C5C0C5C0C596
:10052000C0C5C0C5C0C5C0C5C0C5403D49008D4699
:10053000704710B50446C046C0462046FFF709FE86
:1005400010BD000000487047E80100200149182054
:10055000ABBEFEE726000200704772B600BFFEE7A2
:1005600070B5044600F01AF906462546681C0028B6
:1005700002D0054800782D1800BF00F00FF9801B4D
:10058000A842FAD370BD00002C00002078B50346C5
:100590000A460021DFE001268E4014683440002C1A
:1005A0007ED01579AD07AD0F012D04D01579AD07BB
:1005B000AD0F022D18D198684E000325B5400646B0
:1005C000AE4330464E00D568B54028439860586821
:1005D00001258D400646AE4330461026556835400D
:1005E0002D098D40284358601579AD07AD0F032DB7
:1005F0000BD0D8684E000325B5400646AE433046C2
:100600004E009568B5402843D8601579AD07AD0F09
:10061000022D15D1CD08AE001D462035A8594D0735
:10062000EE0E0F25B5400646AE4330464E07F60E99
:100630001569B5402843CD08AD001E4620367051DF
:1006400018684E000325B5400646AE43304615797E
:10065000AD07AD0F4E00B5402843186003263604A1
:1006600055683540002D75D000BF3E4DAD6901265F
:1006700035433C4EB5613546AD69ED07ED0F00954C
:1006800000BF00BF384D8E08B600A8598D072E0F49
:100690000F25B5400646AE4330460925ED0600E07D
:1006A00058E0AB4201D100250FE0304DAB4201D103
:1006B00001250AE02E4DAB4201D1022505E02D4D6A
:1006C000AB4201D1032500E005258E07360FB5406A
:1006D0002843254D8E08B600A851274DA868054629
:1006E000A54328460126360555683540002D02D021
:1006F000054625432846204DA860E8680546A543E1
:1007000028460126760555683540002D02D005465D
:1007100025432846184DE86068680546A5432846E5
:100720000126760455683540002D02D00546254344
:100730002846114D686028680546A54328460126CD
:10074000360455683540002D02D00546254328461D
:10075000094D2860491C1568CD40002D00D01AE7CE
:1007600078BD00000010024008000140000400486D
:1007700000080048000C00480004014002461369CC
:100780000B40002B01D0012000E000207047002A20
:1007900001D0816100E0816270470000014800687B
:1007A000704700002400002010B50446002C01D141
:1007B000012010BDE06F002805D1002178200155EF
:1007C000204600F053FD2420E067206800684008C0
:1007D000400021680860204600F0B4FF012800D1E5
:1007E000E7E7606A002802D0204600F073FE206828
:1007F00040680921C90288432168486020688068F0
:100800002221884321688860206880680821084385
:100810002168886020680068012108432168086019
:10082000204600F0CFFEC4E703480068034909787A
:100830004018014908607047240000202C00002067
:1008400010B50648006810210843044908600020DC
:1008500000F006F800F02EF8002010BD0020024045
:1008600070B50446104801787D20C000FFF792FD66
:10087000064631460D480068FFF78CFD054600F03E
:10088000D9FC002801D0012070BD042C07D2002221
:100890002146501E00F02EF80548046001E00120BA
:1008A000F2E70020F0E700002C00002030000020DC
:1008B0002800002008B500BF0D48806901210843C9
:1008C0000B49886108468069C007C00F009000BFCF
:1008D00000BF00BF0846C069090408430449C86155
:1008E0000846C06909040840009000BF00BF08BD69
:1008F0000010024070B504460D46164629462046B3
:1009000001F06CF870BD0000F8B504460026002523
:10091000012109042068084088427AD10027524802
:10092000C0690903084000280DD100BF4E48C069C6
:1009300008434D49C8610846C06909040840009051
:1009400000BF00BF012749480068FF21013108406E
:10095000002816D145480068084344490860FFF75D
:100960001DFF064606E0FFF719FF801B642801D92A
:100970000320F8BD3D480068FF21013108400028F0
:10098000F1D03948006A0321090208400546002DCC
:100990002DD060680840A84229D03348006A8843B7
:1009A00005463148006A0121090408432E490862BE
:1009B0000846006A0121090488432B490862084659
:1009C0000562E807C00F002811D0FFF7E7FE0646D2
:1009D00007E0FFF7E3FE801B2549884201D9032089
:1009E000C7E72148006A022108400028F1D01E48CC
:1009F000006A032109028843616808431A490862B2
:100A0000012F05D10846C069090488431649C86109
:100A100000BF2078C007C00F002807D01248006B25
:100A200080088000A16808430F49086320212068DE
:100A30000840202807D10C48006B10218843E1684A
:100A40000843094908630121890220680840884257
:100A500007D10548006B40218843216908430249BA
:100A60000863002085E7000000100240007000408D
:100A70008813000070B504460D46002C01D10120FA
:100A800070BD52480068C007C00FA8420ED24F4840
:100A900000684008400028434C4908600846006848
:100AA000C007C00FA84201D00120E9E70221206859
:100AB0000840022814D1042120680840042807D1E6
:100AC000434840680721090288434018404948606C
:100AD0003F484068F0218843A16808433C4948608A
:100AE0002078C007C00F00283BD06068012808D1DB
:100AF00037480068012149040840002815D1012029
:100B0000BEE76068022808D1314800680121490623
:100B10000840002809D10120B2E72D4800680221D1
:100B20000840002801D10120AAE729484068800830
:100B300080006168084326494860FFF72FFE06469B
:100B400007E0FFF72BFE801B2249884201D90320D2
:100B500096E71F4840680C21084061688900884278
:100B6000EFD11A480068C007C00FA8420ED9174835
:100B7000006840084000284314490860084600689F
:100B8000C007C00FA84201D0012079E704212068E6
:100B90000840042808D10E4840680721090288430C
:100BA000E16808430A49486000F032F8084949689A
:100BB000F02211400909084A515CC8400749086001
:100BC0000020FFF74DFE00205AE700000020024001
:100BD0000010024088130000A41B00083000002011
:100BE00001480068704700003000002000B5FFF7A2
:100BF000F7FF05494968072212021140090A034A12
:100C0000515CC84000BD000000100240B41B000849
:100C1000F8B50024002500270026002000901D487C
:100C200044680C20204000282DD0042802D0082839
:100C300028D102E01848009028E00F2080042040CE
:100C4000800C16490E5C1348C06A0007000F144957
:100C50000D5C0120000420400121090488420AD1D2
:100C60002A4600230C481946FFF7B2FA314600F035
:100C70008FFE074604E00B48314600F089FE074628
:100C8000009703E000BF0448009000BF00BF009839
:100C9000F8BD00000010024000127A00841B00081A
:100CA000941B000800093D00FEB50446002C01D14C
:100CB0000120FEBD2078C007C00F002871D0FC487D
:100CC00040680C21084004280BD0F94840680840CF
:100CD000082812D1F64840680121090408408842DA
:100CE0000BD1F348006801214904084000286BD06B
:100CF0006068002868D10120DBE700BF6068012838
:100D000007D1EB480068012109040843E84908605D
:100D100031E0606800280ED1E5480068012109042F
:100D20008843E34908600846006801218904884334
:100D3000DF4908601FE0606805280ED1DC480068C4
:100D4000012189040843DA49086008460068012146
:100D500009040843D64908600DE0D5480068012120
:100D600009048843D24908600846006801218904C3
:100D70008843CF49086000BF6068002812D0FFF7A1
:100D80000DFD054606E0FFF709FD401B642801D96B
:100D900003208EE7C6480068012149040840002866
:100DA000F1D011E0FFF7FAFC054606E0FFF7F6FC8C
:100DB000401B642801D903207BE7BD48006801215E
:100DC000490408400028F1D1022120680840022887
:100DD00061D1B74840680C21084000280BD0B448C6
:100DE0004068084008281BD1B14840680121090427
:100DF0000840002814D1AE480068022108400028AD
:100E000004D0E068012801D0012052E7A84800681A
:100E1000F82188432169C9000843A54908603AE0E0
:100E2000E068002820D0A248006801210843A049BA
:100E30000860FFF7B3FC054606E0FFF7AFFC401B78
:100E4000022801D9032034E79948006802210840AC
:100E50000028F2D096480068F82188432169C9002B
:100E600008439349086016E0914800684008400034
:100E70008F490860FFF792FC054606E0FFF78EFCFD
:100E8000401B022801D9032013E78948006802218A
:100E900008400028F2D1082120680840082831D1F4
:100EA000E069002817D08248406A01210843804940
:100EB0004862FFF773FC054606E0FFF76FFC401B36
:100EC000022801D90320F4E67948406A022108404B
:100ED0000028F2D016E07648406A40084000744985
:100EE0004862FFF75BFC054606E0FFF757FC401B36
:100EF000022801D90320DCE66D48406A022108403F
:100F00000028F2D1042120680840042873D1002071
:100F100001906748C0698906084000280ED100BFCB
:100F20006348C06908436249C8610846C06909044A
:100F30000840009000BF00BF012001905D4800689C
:100F4000FF2101310840002816D15A4800680843A3
:100F500058490860FFF722FC054606E0FFF71EFC33
:100F6000401B642801D90320A3E652480068FF21F2
:100F7000013108400028F1D000BFA068012806D147
:100F80004B48006A01210843494908622BE0A068E8
:100F900000280CD14648006A4008400044490862D5
:100FA0000846006A04218843414908621BE0A068A2
:100FB00005280CD13E48006A042108433C490862D8
:100FC0000846006A01210843394908620BE03848A5
:100FD000006A40084000364908620846006A042159
:100FE00088433349086200BFA068002813D0FFF788
:100FF000D5FB054608E02BE0FFF7D0FB401B2E4950
:10100000884201D9032054E62948006A0221084099
:101010000028F1D011E0FFF7C1FB054607E0FFF71C
:10102000BDFB401B2449884201D9032041E62048EA
:10103000006A022108400028F1D10198012806D158
:101040001B48C0690121090788431949C86100BFCD
:10105000102120680840102860D1606901282DD136
:101060001348406B04210843114948630846406B0C
:10107000012108430E494863FFF790FB054606E04F
:10108000FFF78CFB401B022801D9032011E608481A
:10109000406B022108400028F2D00548406BF8213F
:1010A0008843A169C90008430149486336E000004C
:1010B0000010024000700040881300006069401D6D
:1010C00000280FD15A48406B04218843584948638F
:1010D0000846406BF8218843A169C9000843544978
:1010E00048631BE05248406B042108435049486361
:1010F0000846406B400840004863FFF74FFB054639
:1011000006E0FFF74BFB401B022801D90320D0E586
:101110004748406B022108400028F2D1206A00288D
:101120004FD0434840680C210840082864D0206A0A
:10113000022847D13E4800680121090688433C49FE
:101140000860FFF72BFB054606E0FFF727FB401B77
:10115000022801D90320ACE5354800680121490681
:1011600008400028F1D100BF3148C06A00090001E1
:10117000E16A08432E49C862616AA06A08432C49A3
:1011800049683D221204914308432949486000BF41
:101190000846006801210906084325490860FFF751
:1011A000FDFA054606E0FFF7F9FA401B022801D9CF
:1011B00003207EE51E4800680121490608400028FA
:1011C000F1D033E01A480068012109068843184924
:1011D0000860FFF7E3FA054606E0FFF7DFFA401B79
:1011E000022801D9032064E511480068012149065D
:1011F00008400028F1D119E0206A012800D158E503
:101200000B484668C76A012000043040616A884282
:101210000AD13907090FE06A814205D10F20800405
:101220003040A16A884201D0012042E5002040E51B
:101230000010024070B504462546681E09498842E0
:1012400001D901200CE0681E074948610321081FED
:1012500000F0C4FB002004498861072008610020D9
:1012600070BD0000FFFFFF0000E000E010B586B099
:101270000446142101A8FFF78BF81A492068884218
:101280002DD100BF18488069012189030843164900
:10129000886108468069012189030840009000BFE9
:1012A00000BF00BF10484069C90008430E494861AB
:1012B00008464069012149040840009000BF00BF72
:1012C0000812019012200290012003900320049044
:1012D0000120059001A90920C006FFF757F906B0C3
:1012E00010BD0000003801400010024000BFFEE7C2
:1012F00000B587B0142102A8FFF74AF800BF1F48C5
:1013000040690121490408431C4948610846406975
:10131000012149040840019000BF00BF00BF1748E9
:101320004069890008431549486108464069012120
:10133000C9040840019000BF00BF00220321090238
:101340000F48FFF724FA012002900920400403907F
:101350000020049002A90920C006FFF717F9032016
:10136000000202900120039000200490059002A941
:101370000348FFF70BF907B000BD00000010024062
:101380000008004810B50E480E4908604B20C00107
:10139000486000210B488160C16001610C214161FE
:1013A00000218161C161016200200649486208464E
:1013B000FFF7FAF9002801D0FFF7CFF810BD0000C1
:1013C000003801403400002000BFFEE7704770473E
:1013D00070B505460C46601E19490870224629461C
:1013E0001748401CFEF775FF641C0026002003E030
:1013F0001349095C4E40401CA042F9D310480655E1
:10140000641C09200F49086000200CE00C49095CAD
:101410000C4A2032118100BF0A49C969802211405B
:101420000029F9D0401CA042F0D300BF0548C06994
:10143000402108400028F9D001200249086070BD11
:10144000BC0000200038014010B5FFF7EDF910BDD9
:1014500000B595B0302109A8FEF79AFF002005904D
:1014600006900790089014216846FEF791FF02202D
:10147000099001200C9010200D9002201190002165
:1014800012910521C90413910021149109A8FFF7B5
:101490000BFC002801D0FFF760F807200590022020
:1014A0000690002007900890012105A8FFF7E2FAB6
:1014B000002801D0FFF751F8012000900020029091
:1014C0006846FFF721FA002801D0FFF746F815B06B
:1014D00000BD7047818CC907C90F002908D0016879
:1014E0004968012252049143826A114302685160A3
:1014F0000222416A1140022907D101684968D203DA
:101500009143C26A1143026851600422416A11404A
:10151000042907D10168496812049143026B114301
:10152000026851600822416A1140082907D1016808
:10153000496812039143426B1143026851601022C3
:10154000416A1140102907D101688968120291434C
:10155000826B1143026891602022416A1140202968
:1015600007D10168896812029143C26B1143026876
:1015700091604022416A1140402915D101684968B3
:1015800092039143026C11430268516001221205DB
:10159000016C914208D101684968032252059143C8
:1015A000426C1143026851608022416A11408029D7
:1015B00007D10168496812039143826C11430268A4
:1015C00051607047F8B50446002184200151FFF7AF
:1015D000E5F805462068006808210840082823D15E
:1015E00037482B46002289040090204600F07AF903
:1015F000002819D000BF00F02DFA0646012000F0A7
:101600002CFA2068006880218843216808603046F1
:1016100000F023FA00BF2020E06700BF00217820FF
:10162000015500BF0320F8BD206800680421084070
:10163000042836D122482B46002209050090204676
:1016400000F050F900282CD000BF00F003FA064645
:10165000012000F002FA20680068FF212131884350
:1016600021680860304600F0F8F900BF00BF00F0C4
:10167000F1F90646012000F0F0F920688068400882
:10168000400021688860304600F0E7F900BF202163
:101690008020015100BF00217820015500BF0320A8
:1016A000C1E72020E0672021802001510020206632
:1016B000606600BF00217820015500BF0020B2E71E
:1016C000FFFFFF0170B5044600BF00F0C3F90546F7
:1016D000012000F0C2F920680068FF212131884311
:1016E00021680860284600F0B8F900BF00BF00F08C
:1016F000B1F90546012000F0B0F920688068400883
:10170000400021688860284600F0A7F900BF206EDD
:10171000012810D100BF00F09DF90546012000F01E
:101720009CF92068006810218843216808602846D9
:1017300000F093F900BF2021802001510020206695
:10174000A06670BDFEB50446002000902169A06827
:10175000084361690843E169084302902068006812
:101760005A49084002990843216808602068406887
:10177000032109038843E168084321684860A069A0
:101780000290206A029908430290206880680B2129
:1017900009028843029908432168886000BF4C49C8
:1017A0002068884217D14B48006B8007800F0028C3
:1017B00006D0012808D0022808D0032808D101E06B
:1017C000002707E0022705E0042703E0082701E0DF
:1017D000102700BF06E040492068884201D1002759
:1017E00000E0102700BF0121C903E069884239D118
:1017F000002F06D0022F08D0042F08D0082F0DD1BB
:1018000009E0FFF7F3F905460CE0344D0AE0FFF775
:10181000FFF9054606E00125ED0303E00025012060
:10182000009000BF00BF002D4AD06A0063685B08CB
:10183000D0186168FEF7AEFD0646102E0FD328487B
:1018400086420CD826480F38304001903007400FB0
:1018500001990843019001982168C86030E0012097
:1018600000902DE0002F06D0022F08D0042F08D0C2
:10187000082F0DD109E0FFF7B9F905460CE0174D27
:101880000AE0FFF7C5F9054606E00125ED0303E090
:1018900000250120009000BF00BF002D10D061681E
:1018A0004A085019FEF776FD0646102E06D30C485E
:1018B000864203D8B0B22168C86001E001200090E0
:1018C0000020A066E0660098FEBD0000F369FFFFFF
:1018D00000380140001002400044004000127A002D
:1018E000FFFF0000FFB581B004460D4617460A9E73
:1018F00042E0701C00283FD0FEF750FF0499401AC8
:10190000B04201D8002E02D1032005B0F0BD2068FE
:1019100000680421084000282ED02068C0690821F2
:101920000840C00800280FD008202168086220461F
:10193000FFF7C8FE08218420015100BF0021782054
:10194000015500BF0120E0E72068C0690121C902FC
:101950000840C00A00280FD00846216808622046C7
:10196000FFF7B0FE20218420015100BF0021782024
:10197000015500BF0320C8E72068C0692840A8427D
:1019800001D1012000E00020B842B2D00020BCE725
:10199000F8B582B28BB2040C0D0C104658430021EE
:1019A00026465E43370C36048019794116466E434D
:1019B000370C36048019794126466E438919F8BDE3
:1019C00030B47446641E2578641CAB4204D3635D56
:1019D0005B00E31830BC18471D46F8E710B5002837
:1019E00019DB1A4A03231B02D21883089B00D25822
:1019F0008307DC0EFF23A3409A438B071B0E84074B
:101A0000E40EA3401A43114B032424021B1984083B
:101A1000A4001A5118E00E4A03071B0F083B9B084D
:101A20009B00D2588307DC0EFF23A3409A438B0709
:101A30001B0E8407E40EA3401A43054B0407240F32
:101A4000083CA408A4001A5110BD000000E100E009
:101A50001CED00E0EFF31080704780F310887047B2
:101A6000FEF7EEFEFFF7F4FCFFF742FCFFF78AFCFF
:101A7000002469E001210920C006FEF77FFE01284D
:101A80005CD1012201023148FEF781FE2300FFF7FD
:101A900097FF0D080D12171C21262B30353A3F44B5
:101AA000490001212A48FFF793FC3CE00221294824
:101AB000FFF78EFC37E002212748FFF789FC32E070
:101AC00001212648FFF784FC2DE002212448FFF77E
:101AD0007FFC28E002212348FFF77AFC23E007215E
:101AE0002148FFF775FC1EE007212048FFF770FC36
:101AF00019E002211E48FFF76BFC14E002211D488B
:101B0000FFF766FC0FE003211B48FFF761FC0AE0CA
:101B100003211A48FFF75CFC05E001211848FFF794
:101B200057FC00E000BF00BF0C2C01D1002000E0FA
:101B3000601CC4B27D20C000FEF712FD0022FF2110
:101B400001310248FEF723FE94E700000008004838
:101B500000000020010000200300002005000020FC
:101B600006000020080000200A00002011000020CC
:101B7000180000201A0000201C0000201F00002078
:101B80002200002002030405060708090A0B0C0DB9
:101B90000E0F10100102030405060708090A0B0CBA
:101BA0000D0E0F10000000000000000001020304F1
:101BB000060708090000000001020304DC1B0008FE
:101BC000000000203400000000010008101C000884
:101BD00034000020140800001C010008C0C100C12E
:101BE0000982C300C30984000001020304840100C8
:101BF000ABCDEF5685008501C60000C60100C700C9
:101C000000000000040000000100000000127A0043
:04000005080000BD32
:00000001FF
