:10020000B006002065030008B51200084D12000872
:1002100000000000000000000000000000000000DE
:10022000000000000000000000000000B9120008FB
:100230000000000000000000B7120008BB12000818
:10024000950300089503000895030008950300082E
:10025000950300089503000895030008950300081E
:1002600000000000950300089503000895030008AE
:1002700095030008950300080000000035130008EE
:10028000000000000000000000000000000000006E
:10029000950300080000000000000000950300081E
:1002A00000000000950300080000000000000000AE
:1002B00095030008950300080000000000000000FE
:1002C00000F002F800F03EF80CA030C808382418FE
:1002D0002D18A246671EAB4654465D46AC4201D17E
:1002E00000F030F87E460F3E0FCCB6460126334272
:1002F00000D0FB1AA246AB463343184780120000D9
:10030000A0120000103A02D378C878C1FAD8520778
:1003100001D330C830C101D504680C6070470000BB
:100320000023002400250026103A01D378C1FBD811
:10033000520700D330C100D50B6070471FB51FBDF9
:1003400010B510BD00F099F91146FFF7F7FF01F065
:10035000D9F800F0B1F903B4FFF7F2FF03BC00F0E5
:10036000B7F900000F4880F308880F480168090EAC
:100370000E4A914205D10E480E4901600E480F49C0
:1003800001600F4880470F480047FEE7FEE7FEE7A1
:10039000FEE7FEE7FEE700000B480C490C4A0D4B58
:1003A00070470000B0060020040000001F0000009D
:1003B0003410024001000000000001400000000075
:1003C00031130008C1020008B0000020B006002070
:1003D000B0020020B0020020FEB5054610460C46D3
:1003E000184373D0AE468C460020AD1A01469C419E
:1003F00067D36646002701243D46B61A9D4102D3C5
:1004000013463A462124654676462F04360C3E4371
:100410002D0CB61A9D4104D3150C1B042B4312045A
:100420001034654676462F06360A3E432D0AB61A24
:100430009D4104D3150E1B022B431202083465465E
:1004400076462F0736093E432D09B61A9D4104D33F
:10045000150F1B012B431201241D65467646AF077D
:10046000B6083E43AD08B61A9D4104D3950F9B00D4
:100470002B439200A41C65467646EF0776083E4360
:100480006D08B61A9D411AD392185B41641C16E0A0
:100490000018764665464941B71A9D410191009082
:1004A00009D36046B11A98418E4684460098019956
:1004B0000025401C6941DD0752082A435B08641E81
:1004C000E6D57246634603B0F0BDFFE70020014663
:1004D000C046C0462A462346F5E701E004C0091F8E
:1004E0000429FBD28B0701D50280801CC90700D0EC
:1004F0000270704700290BD0C30702D00270401C65
:10050000491E022904D3830702D50280801C891E5C
:10051000E3E70022EEE70022DFE7002203098B4237
:100520002CD3030A8B4211D300239C464EE0034692
:100530000B433CD4002243088B4231D303098B4246
:100540001CD3030A8B4201D394463FE0C3098B427C
:1005500001D3CB01C01A524183098B4201D38B01D5
:10056000C01A524143098B4201D34B01C01A524178
:1005700003098B4201D30B01C01A5241C3088B42BD
:1005800001D3CB00C01A524183088B4201D38B00A8
:10059000C01A524143088B4201D34B00C01A52414A
:1005A000411A00D201465241104670475DE0CA0F21
:1005B00000D04942031000D34042534000229C46E1
:1005C00003098B422DD3030A8B4212D3FC228901EB
:1005D00012BA030A8B420CD3890192118B4208D3C1
:1005E000890192118B4204D389013AD0921100E023
:1005F0008909C3098B4201D3CB01C01A5241830937
:100600008B4201D38B01C01A524143098B4201D363
:100610004B01C01A524103098B4201D30B01C01A8E
:100620005241C3088B4201D3CB00C01A5241830808
:100630008B4201D38B00C01A5241D9D243088B425E
:1006400001D34B00C01A5241411A00D20146634601
:1006500052415B10104601D34042002B00D5494265
:10066000704763465B1000D3404201B50020C0468E
:10067000C04602BD704770477047754600F024F8C9
:10068000AE46050069465346C008C000854618B00E
:1006900020B5FFF781FE60BC00274908B64600265A
:1006A000C0C5C0C5C0C5C0C5C0C5C0C5C0C5C0C522
:1006B000403D49008D46704710B50446C046C046CF
:1006C0002046FFF748FE10BD00487047500000204C
:1006D00001491820ABBEFEE726000200704700006B
:1006E000F8B5002303240125B3E032462E469E4090
:1006F000B446324079D00E79B607B60F012E01D03C
:10070000022E17D186682746B6465E00B74000968F
:100710007646BE43B646CF68009EB740764637431E
:10072000876046686746BE430F79FF06FF0F9F400C
:10073000374347600E79F643B6070ED0C6682746A2
:10074000B4465E00B646B7406646BE43B4468F68C0
:100750007646B74066463743C7600E79B607B60F90
:10076000022E14D1DE08B60036180096366A5F07EE
:10077000B446FE0E0F27B646B7406646BE43B446A3
:100780000F697646B74066463743009E3762066873
:100790002746B4465E00B646B7406646BE430F796C
:1007A000B446BF07BF0F7646B7406646374307607B
:1007B0004E68B603B60F4BD0294F7E6B2E437E6337
:1007C0009F08284EBF00BE190096B6680F27B44692
:1007D0009E07360FB646B7406646BE4305273F071D
:1007E000B446B84202D100270BE031E01E4FB842B8
:1007F00001D1012705E01D4FB84201D1022700E0D9
:1008000006277646B74066463743009EB760184EC7
:10081000B6684F689643FF0200D51643144FBE607A
:10082000FE684F689643BF0200D51643104FFE6026
:100830007E684F689643BF0300D516430C4F7E6019
:100840003E684F689643FF0300D51643084A16607A
:100850005B1C0A681646DA4000D046E7F8BD000087
:100860000010024000000140000400500008005049
:1008700000040140426913460B401B0491430B43A3
:1008800083617047002A01D081617047816270479F
:10089000014880687047000000000020024881681D
:1008A00002788918816070470000002010B5084860
:1008B00000240168402211430160032000F00AF87F
:1008C000002801D0012401E000F026F8204610BDE8
:1008D0000020024070B504460D4D7D202978C000EF
:1008E000FFF71BFE01460B480068FFF716FE00F0FD
:1008F00053FB002809D1042C07D200222146401EB8
:1009000000F022F800206C6070BD012070BD000076
:10091000000000200C0000200448416B012211431C
:100920004163816B020411438163704700100240F0
:10093000002805DBC106C90E012088400149086076
:100940007047000000E100E010B500F0B9FD10BDF7
:10095000F8B50E46050038D05E480068C007C00FE5
:10096000B04214D25B4C2068400840003043206005
:10097000FFF78EFF074605E0FFF78AFFC11B5648C9
:1009800081427AD82068C007C00FB042F4D12878DD
:10099000524C800705D5E068F0218843A9680843D8
:1009A000E0602878C00752D06868022806D0032883
:1009B00007D0216801280AD0890504E0216889034D
:1009C00001E021688901002903DB0120F8BD490706
:1009D000F9E7E168890889000143E160FFF758FF02
:1009E0000746686802280AD0032814D001281ED0C0
:1009F00029E0FFF74DFFC11B374881423DD8E06831
:100A00000007800F0228F4D121E0FFF741FFC11B4E
:100A10003148814231D8E0680007800F0328F4D1C3
:100A200015E0FFF735FFC11B2B48814225D8E06850
:100A30000007800F0128F4D109E0FFF729FFC11B4F
:100A40002548814219D8E0680007800FF5D1214878
:100A50000168C907C90FB14217D90168490849009F
:100A600031430160FFF714FF074608E005E0FFF798
:100A70000FFFC11B1848814201D90320F8BD15485A
:100A80000068C007C00FB042F1D12878400706D5F2
:100A9000E068072109028843E9680843E060287894
:100AA000000707D5E0680721C90288432969C90002
:100AB0000843E06000F01AF8E168094A0906090FE6
:100AC000515CC8400749086007480068FFF702FF0B
:100AD000F8BD000000200240881300000010024012
:100AE000601500080C0000200400002070B51A4AB0
:100AF000D3681A490C2018408D0004280CD04E00F1
:100B0000082810D00C2810D050680004410F012094
:100B1000C003491C884070BD1068C00601D5084656
:100B200070BD284670BD304670BD98020C4C000F59
:100B3000205C1B029C0FD368641CDB0301D531468B
:100B400003E01268D20600D4294600F094FC224645
:100B50000023FFF741FC70BD0010024000093D007A
:100B600070150008FEB505007ED0F74CE7680C2034
:100B7000E66807400120000406402878C00747D0F7
:100B8000082F05D00C2F0AD101200004864206D17F
:100B9000206880033CD568680028E5D038E0012053
:100BA00069680004814203D121680143216011E09A
:100BB000052301221B0492049942216802D11143AA
:100BC0002160F1E7814321602168014000912068A4
:100BD00090432060686800280DD0FFF759FE009010
:100BE00005E0FFF755FE0099401A64287ED820687A
:100BF0008003F6D50CE0FFF74BFE009005E0FFF711
:100C000047FE0099401A6428F0D820688003F6D483
:100C1000287880075DD5E868810604D52268202100
:100C20000A43226088430923042F0DD00C2F01D1E1
:100C3000002E09D000283CD021689943014321604F
:100C4000FFF726FE064628E02168490701D500285F
:100C50008AD061681F22120291432A69120211434D
:100C600061602168994300E091E101432160FFF751
:100C70003DFFE16809060A0FB449895CC840B449E0
:100C80000860B4480068FFF725FE002874D120E012
:100C9000FFF7FEFD801B0228A8D820684007F7D583
:100CA00060681F21090288432969090208436060BE
:100CB0000FE02068400840002060FFF7E9FD06468D
:100CC00004E0FFF7E5FD801B02288FD8206840076D
:100CD000F7D42878C00661D5002F0DD0A869002868
:100CE0004BD02068FF210131084300E0C6E02060BE
:100CF000FFF7CEFD06462DE02068800502D5A869E5
:100D00000028A5D06068072149038843296A084361
:100D100060606068297F0002000A0906084360607D
:100D2000286A410B0120C003491C8840E16809067C
:100D30000A0F8649895CC840854908608548006873
:100D4000FFF7C8FD002817D128E0FFF7A1FD801BA1
:100D50000228A1D820688005F7D5606807214903DB
:100D60008843296A084360606068297F0002000A9E
:100D700009060843606011E0E1E02168FF200130CE
:100D800081432160FFF784FD064604E0FFF780FD04
:100D9000801B022872D820688005F7D428786E4E10
:100DA000000724D568690028306910D00121084364
:100DB0003061FFF76DFD009005E0FFF769FD0099D8
:100DC000401A02285AD830698007F6D50FE040084B
:100DD00040003061FFF75CFD009005E0FFF758FD33
:100DE0000099401A022849D830698007F6D428783B
:100DF000400765D500200290A06BC00006D4A06B10
:100E0000012109070843A0630120029053480168AB
:100E1000C90511D40168821511430160FFF738FD3F
:100E2000009005E0FFF734FD0099401A642825D8AA
:100E30004A480068C005F5D5FF20AA680130824203
:100E400003D131690143316111E001218902002A96
:100E500007D005231B029A4203D132690A4332614B
:100E6000EFE7326982433261306988433061A868B4
:100E700000280FD0FFF70CFD009007E05EE0FFF7C1
:100E800007FD0099411A3648814257D830698005DC
:100E9000F5D50DE0FFF7FCFC009006E0FFF7F8FC4D
:100EA0000099411A2E48814248D830698005F5D40E
:100EB0000298002804D0A06B012109078843A06391
:100EC000686A002865D00C2F4CD00126360602280F
:100ED000206805D0B0432060FFF7DAFC05462FE01C
:100EE000B0432060FFF7D4FC074604E0FFF7D0FCD6
:100EF000C01B022822D820688001F7D4E96AA86ABA
:100F0000E2680843296BFD231B049A4311430843FD
:100F1000E060206830432060FFF7BAFC054604E03B
:100F2000FFF7B6FC401B022808D820688001F7D5DF
:100F30002FE0FFF7ADFC401B022801D90320FEBDC6
:100F400020688001F5D424E00010024060150008FC
:100F50000C000020040000204010024000700040FF
:100F6000881300000128EAD0E06801210904AA6A78
:100F7000014091420BD10F218904EA6A014091425C
:100F800005D1032189050840296B884201D0012041
:100F9000FEBD0020FEBD0000094910B5401E88427C
:100FA00001D9012010BD074C60610321081F00F02A
:100FB00087FA0020A06107202061002010BD0000FA
:100FC000FFFFFF0000E000E0F0B502462032137E94
:100FD000012B1BD0012616760223537605686B6819
:100FE000AC687027BB430F681F436F600068B3078E
:100FF000984202D0064B984204D1802349689C4312
:1010000021438160567600201076F0BD0220F0BDAD
:101010000008014070B5050005D02C462034607EE4
:10102000002802D006E0012070BD0020207628466E
:1010300000F010F802206076291D286800F082F97F
:101040000120A077A076E076207760776076002098
:1010500070BD000010B500680121890788420CD1DD
:101060000648816B012211438163002211460F2043
:10107000FFF76AFC0F20FFF75BFC10BD0010024079
:10108000014620314A7E012A01D001207047022208
:101090004A760268D36801210B43D36000688A074F
:1010A000904202D0064A904204D182685207520F01
:1010B000062A02D002680A4302600020704700003E
:1010C00000080140704770B50446006801690025BA
:1010D000C9438907002915DBC168C943890711D4B1
:1010E000E91E016101202076206880698007204682
:1010F00002D0FFF7E7FF04E000F078F8204600F0A8
:1011000076F8257620680169C943490717D4C16874
:10111000C943490713D40421C94301610220207641
:10112000206880698005800F204602D0FFF7CAFF43
:1011300004E000F05BF8204600F059F825762068BE
:101140000169C943090716D4C168C943090712D404
:101150000821C9430161042020762068C069800706
:10116000204602D0FFF7AEFF04E000F03FF8204633
:1011700000F03DF8257620680169C943C90617D4F7
:10118000C168C943C90613D41021C94301610820AD
:1011900020762068C0698005800F204602D0FFF7C6
:1011A00091FF04E000F022F8204600F020F82576B8
:1011B00020680169C943C90708D1C168C943C90783
:1011C00004D1891E0161204600F012F820680169EF
:1011D000C943490609D4C168C943490605D4402119
:1011E000C9430161204600F030F870BD7047704778
:1011F00010B5052010210007FFF73CFB10BD70B5AE
:10120000044605462034207E01280ED0012626768D
:1012100002206076284600F0C4F80146002000292C
:1012200005D066762076012070BD022070BD296849
:10123000CA6840239A43CA602968CA681B029A4355
:10124000CA6066762076002070BD7047FEE7000019
:1012500010B588B014216846FFF75DF9002401211C
:10126000134805948907069412C004607D218460A8
:101270000901C46041600838FFF7CCFE002801D0A6
:1012800072B6FEE70094694609480194FFF7B7FF7C
:10129000002801D072B6FEE7059405A9044806941B
:1012A000FFF792FE002801D072B6FEE708B010BD2D
:1012B00010000020FEE77047704710B5FFF7EEFA08
:1012C00010BD000010B592B034216846FFF723F935
:1012D00014210DA8FFF71FF9144801680322D20258
:1012E0009143C214891801601020009001200690DB
:1012F0000520002440030890079409946846FFF7EE
:1013000031FC002801D072B6FEE70F200D900E943C
:101310000F941094002111940DA8FFF719FB0028D9
:1013200001D072B6FEE712B010BD000000700040A0
:101330007047000010B50248FFF7C5FE10BD000061
:101340001000002030B5026801239B070E4C984224
:1013500001D0A04203D17025AA434D682A43984288
:1013600001D0A04204D103231B029A43CB681A4345
:1013700080239A430B691A4302608A68C262096833
:1013800081620121416130BD0008014030B58468AF
:10139000FF252D021B021343AC430B432343836001
:1013A00030BD70B505680024AA6870239A434B6865
:1013B0001343DB080A68DB001A43AA604A68130774
:1013C0001B0F31D11211130000F06DF8082F2F2FD1
:1013D0002F0C2228052E0B698A68C9680068FFF760
:1013E000D5FF22E00A68052A10D00268136A156A40
:1013F0006D086D0015620568AA690969F026B24397
:1014000009011143A961006803620EE0012070BD6B
:101410000A698968006800F00AF806E00A698968C4
:10142000006800F015F800E00124204670BD30B5DA
:10143000036A046A6408640004628469F025AC43AA
:10144000120122430A24A3430B438261036230BD8D
:1014500030B5036A1024A34303628469036A0F252D
:101460002D031203AC432243A024A34309011943D3
:101470008261016230BDF8B5040C8BB2264682B29F
:101480005E430D0C1046370C58433604801900217A
:10149000794116466E43370C360480197941264649
:1014A0006E438919F8BD30B47446641E2578641CF7
:1014B000AB4200D21D46635D5B00E31830BC1847A9
:1014C0008307FF22DB0E9A408907090E9940002806
:1014D00008DB830809489B001B18186890430843E1
:1014E000186070470007000F0838830804489B0005
:1014F0001B18D86990430843D861704700E400E0A6
:1015000000ED00E086B0FFF7D1F9FFF7DBFE142114
:101510006846FFF700F81048C16A01242143C16200
:10152000C06A052520402D0705900022102128467D
:10153000FFF7A8F9102000901120019000200390DF
:10154000029469462846FFF7CBF8FFF781FE03486F
:10155000FFF796FDFEE7000000100240100000209B
:101560000000000000000000010203040607080953
:10157000030406080C101820300000009C15000819
:10158000000000201000000004030008AC15000853
:1015900010000020A0060000200300080100000049
:0C15A0000400000000000000000020001B
:04000005080002C12C
:00000001FF
